:020000040800F2
:1000000000500020A10700087906000885060008B6
:100010008B06000891060008970600080000000003
:100020000000000000000000000000009D06000825
:10003000A906000800000000B5060008C106000877
:10004000E9070008E9070008E9070008E9070008D0
:10005000E9070008E9070008E9070008E9070008C0
:10006000E9070008E9070008E9070008CD060008CD
:10007000E9070008E9070008E9070008E9070008A0
:10008000E9070008E9070008E9070008E907000890
:10009000E9070008E9070008E9070008E907000880
:1000A000E9070008E9070008E9070008E907000870
:1000B000E9070008E9070008E9070008E907000860
:1000C000E9070008E9070008E9070008E907000850
:1000D000E9070008E9070008E9070008E907000840
:1000E000E9070008E9070008E90700080000000028
:1000F0000000000000000000000000000000000000
:0C01000000000000000000005FF808F1A3
:10010C0010B5054C237833B9044B13B10448AFF345
:10011C0000800123237010BD70000020000000003F
:10012C00B82F000808B5034B1BB103490348AFF3C4
:10013C00008008BD0000000074000020B82F0008EB
:10014C0080B500AF00F04CFB00F05AF800F056F907
:10015C0000F036F900F0AEF800F008F9032221495E
:10016C00214800F099FC1F4B1B681A461F49204878
:10017C0002F00AFB03469AB24FF4FA731C491D486D
:10018C0002F013F90A2000F08DFB164B5B681A463F
:10019C001649174802F0F8FA03469AB24FF4FA736C
:1001AC001349144802F001F90A2000F07BFB0D4BB7
:1001BC009B681A4610490E4802F0E6FA03469AB2BA
:1001CC004FF4FA730A490B4802F0EFF80A2000F0DA
:1001DC0069FB4FF40051094801F0B0FB0A2000F014
:1001EC0061FBC0E75C01002098000020D02F0008C4
:1001FC0008010020C8000020D82F00080010014082
:10020C0080B594B000AF07F12803282200211846CE
:10021C0002F0B2FA07F1140300221A605A609A60D5
:10022C00DA601A613B1D00221A605A609A60DA602B
:10023C000123BB624FF48033FB6200233B63012339
:10024C00BB6302237B644FF48033BB640023FB64E9
:10025C0007F12803184601F089FB0346002B01D057
:10026C0000F018F90F237B610223BB610023FB61B3
:10027C004FF480633B6200237B6207F1140300217F
:10028C00184601F0F3FD0346002B01D000F002F9F3
:10029C0002237B600023FB603B1D184601F082FFAC
:1002AC000346002B01D000F0F5F800BF5037BD46D7
:1002BC0080BD000080B584B000AF3B1D00221A60E9
:1002CC005A609A60274B284A1A60264B4FF480726A
:1002DC009A60244B01221A73224B00221A75214B6F
:1002EC004FF46022DA611F4B00225A601D4B03222F
:1002FC001A611C4800F0F8FA0346002B01D000F0FC
:10030C00C9F804237B600123BB600723FB603B1D02
:10031C001946144800F0BAFC0346002B01D000F03B
:10032C00B9F805237B600223BB603B1D19460D48C1
:10033C0000F0ACFC0346002B01D000F0ABF8062318
:10034C007B600323BB603B1D1946064800F09EFCF6
:10035C000346002B01D000F09DF800BF1037BD46BE
:10036C0080BD00BF980000200024014080B500AF84
:10037C00114B124A1A60104B4FF4E1325A600E4B7B
:10038C0000229A600C4B0022DA600B4B00221A619F
:10039C00094B0C225A61084B00229A61064B002231
:1003AC00DA61054801F0B4FF0346002B01D000F0E0
:1003BC0071F800BF80BD00BFC800002000380140AC
:1003CC0080B582B000AF0C4B5B690B4A43F0010364
:1003DC005361094B5B6903F001037B607B6800226E
:1003EC0000210B2000F013FF0B2000F02CFF00BFAE
:1003FC000837BD4680BD00BF0010024080B588B0F4
:10040C0000AF07F1100300221A605A609A60DA609C
:10041C001E4B9B691D4A43F0100393611B4B9B6958
:10042C0003F01003FB60FB68184B9B69174A43F001
:10043C0020039361154B9B6903F02003BB60BB68E1
:10044C00124B9B69114A43F0040393610F4B9B6958
:10045C0003F004037B607B6800224FF400510C48CE
:10046C0001F054FA4FF400533B6101237B610023EC
:10047C00BB610223FB6107F110031946044801F02C
:10048C00EBF800BF2037BD4680BD00BF0010024016
:10049C000010014080B400AF00BFBD4680BC704767
:1004AC0080B485B000AF154B9B69144A43F001032F
:1004BC009361124B9B6903F00103BB60BB680F4B4C
:1004CC00DB690E4A43F08053D3610C4BDB6903F0BC
:1004DC0080537B607B680A4B5B68FB60FB6823F096
:1004EC00E063FB60FB6843F00073FB60044AFB684D
:1004FC00536000BF1437BD4680BC704700100240EB
:10050C000000014080B588B000AF786007F110039F
:10051C0000221A605A609A60DA607B681B68284A6D
:10052C00934249D1274B9B69264A43F4007393614C
:10053C00244B9B6903F40073FB60FB68214B9B69A4
:10054C00204A43F0040393611E4B9B6903F00403A0
:10055C00BB60BB6870233B6103237B6107F1100315
:10056C001946194801F078F8184B194A1A60174BBC
:10057C0000225A60154B00229A60144B8022DA60DC
:10058C00124B4FF400721A61104B4FF400625A6117
:10059C000E4B20229A610D4B0022DA610B4800F0C1
:1005AC006DFE0346002B01D0FFF774FF7B68074AF2
:1005BC001A62064A7B68536200BF2037BD4680BD75
:1005CC0000240140001002400008014018010020E6
:1005DC000800024080B588B000AF786007F11003C6
:1005EC0000221A605A609A60DA607B681B681C4AA9
:1005FC00934231D11B4B9B691A4A43F4804393615C
:10060C00184B9B6903F48043FB60FB68154B9B699B
:10061C00144A43F004039361124B9B6903F00403E7
:10062C00BB60BB684FF400733B6102237B61032307
:10063C00FB6107F1100319460B4801F00DF84FF45C
:10064C0080633B6100237B610023BB6107F11003D6
:10065C001946054801F000F800BF2037BD4680BDA3
:10066C0000380140001002400008014080B400AF87
:10067C0000BFBD4680BC704780B400AFFEE780B4BD
:10068C0000AFFEE780B400AFFEE780B400AFFEE73A
:10069C0080B400AF00BFBD4680BC704780B400AFD3
:1006AC0000BFBD4680BC704780B400AF00BFBD46E4
:1006BC0080BC704780B500AF00F0D8F800BF80BD9B
:1006CC0080B500AF024800F093FE00BF80BD00BFB4
:1006DC001801002080B584B000AF7860114B1B6806
:1006EC00002B02D10F4B104A1A600E4B1B68FB609B
:1006FC000C4B1A687B6813446A46934207D902F084
:10070C0011F802460C2313604FF0FF3306E0054B43
:10071C001A687B681344034A1360FB681846103749
:10072C00BD4680BD8C0000207001002080B400AF5D
:10073C00154B1B68144A43F001031360124B5A68A3
:10074C001149124B13404B600F4B1B680E4A23F0A0
:10075C00847323F4803313600B4B1B680A4A23F415
:10076C0080231360084B5B68074A23F4FE03536035
:10077C00054B4FF41F029A60054B4FF000629A60D4
:10078C0000BFBD4680BC7047001002400000FFF85F
:10079C0000ED00E0002103E00B4B5B5843500431AB
:1007AC000A480B4B42189A42F6D30A4A02E000233D
:1007BC0042F8043B084B9A42F9D3FFF7B7FF01F01C
:1007CC00B7FFFFF7BDFC7047A83000080000002001
:1007DC00700000207000002070010020FEE7000077
:1007EC0080B500AF084B1B68074A43F01003136039
:1007FC00032000F001FD002000F008F8FFF750FE88
:10080C000023184680BD00BF0020024080B582B096
:10081C0000AF7860124B1A68124B1B7819464FF4D4
:10082C007A73B3FBF1F3B2FBF3F3184600F019FD46
:10083C000346002B01D001230EE07B680F2B0AD856
:10084C00002279684FF0FF3000F0E1FC064A7B682B
:10085C001360002300E0012318460837BD4680BD15
:10086C0000000020080000200400002080B400AF2D
:10087C00054B1B781A46054B1B681344034A13603F
:10088C0000BFBD4680BC70470800002068010020F6
:10089C0080B400AF024B1B681846BD4680BC704745
:1008AC006801002080B584B000AF7860FFF7F0FFDE
:1008BC00B8607B68FB60FB68B3F1FF3F05D0094B68
:1008CC001B781A46FB681344FB6000BFFFF7E0FF80
:1008DC000246BB68D31AFA689A42F7D800BF1037A1
:1008EC00BD4680BD0800002080B586B000AF7860A2
:1008FC000023FB7500233B610023BB600023FB60DE
:10090C007B68002B01D10123BEE07B689B68002B28
:10091C007B689B6A002B09D17B680022DA627B68BA
:10092C00002283F824207868FFF7ECFD786800F04B
:10093C00F7FA0346FB757B689B6A03F01003002BE8
:10094C0040F09980FB7D002B40F095807B689B6A82
:10095C0023F4885323F0020343F002027B689A626B
:10096C007B685A687B68DB691A437B681B7B5B007E
:10097C001343BA681343BB607B689B68B3F5807FF5
:10098C0003D07B689B68012B02D14FF4807300E08D
:10099C0000233A6913433B617B681B7D012B19D102
:1009AC007B681B7B002B09D17B689B69013B5A033D
:1009BC003B69134343F400633B610BE07B689B6A28
:1009CC0043F020027B689A627B68DB6A43F0010289
:1009DC007B68DA627B681B685B6823F469417B681F
:1009EC001B683A690A435A607B681B689A68284BF3
:1009FC0013407A681268B9680B4393607B689B68F4
:100A0C00B3F5807F03D07B689B68012B04D17B6896
:100A1C001B69013B1B05FB607B681B68DB6A23F4CD
:100A2C0070017B681B68FA680A43DA627B681B6892
:100A3C009A68184B1340BA689A420BD17B68002213
:100A4C00DA627B689B6A23F0030343F001027B6844
:100A5C009A6218E07B689B6A23F0120343F0100241
:100A6C007B689A627B68DB6A43F001027B68DA621E
:100A7C000123FB7507E07B689B6A43F010027B68DF
:100A8C009A620123FB75FB7D18461837BD4680BD65
:100A9C00FDF7E1FFFE0E1FFF80B586B000AFF860DA
:100AAC00B9607A600023FB75FB681B68644A93424B
:100ABC0004D0FB681B68634A934206D1604B5B68A9
:100ACC0003F47023002B40F0B380FB6893F82430C0
:100ADC00012B01D10223AEE0FB68012283F8242014
:100AEC00F86800F0CBF90346FB75FB7D002B40F05A
:100AFC009A80FB689B6A23F4706323F0010343F430
:100B0C008072FB689A62FB681B684E4A934205D15F
:100B1C004B4B5B6803F47023002B15D1FB689B6A6D
:100B2C0023F48012FB689A62FB681B685B6803F411
:100B3C008063002B26D0FB689B6A23F4405343F45C
:100B4C008052FB689A621DE0FB689B6A43F480123A
:100B5C00FB689A62FB681B68394A934204D0FB68B5
:100B6C001B68384A93420DD1354B5B6803F48063A4
:100B7C00002B07D0FB689B6A23F4405343F480524C
:100B8C00FB689A62FB689B6A03F48053002B06D0C7
:100B9C00FB68DB6A23F00602FB68DA6202E0FB68A2
:100BAC000022DA62FB68002283F82420FB681B6AAF
:100BBC00254A9A62FB681B6A244ADA62FB681B6A44
:100BCC00234A1A63FB681B686FF002021A60FB6809
:100BDC001B689A68FB681B6842F480729A60FB6819
:100BEC00186AFB681B684C331946BA687B6800F0BE
:100BFC009FFBFB681B689B6803F46023B3F5602FB5
:100C0C0008D1FB681B689A68FB681B6842F4A00259
:100C1C009A600FE0FB681B689A68FB681B6842F4DB
:100C2C0080129A6006E0FB68002283F8242001E021
:100C3C000123FB75FB7D18461837BD4680BD00BFF0
:100C4C000024014000280140A10F00081D100008DD
:100C5C003910000880B483B000AF786000BF0C3747
:100C6C00BD4680BC704780B483B000AF786000BFD5
:100C7C000C37BD4680BC704780B483B000AF786041
:100C8C0000BF0C37BD4680BC7047000080B485B0F7
:100C9C0000AF786039600023FB730023BB607B6876
:100CAC0093F82430012B01D10223DCE07B68012274
:100CBC0083F824203B685B68062B1CD87B681B6878
:100CCC00596B3B685A6813469B001344053B1F2223
:100CDC0002FA03F3DB4319403B6818683B685A6817
:100CEC0013469B001344053B00FA03F27B681B6818
:100CFC000A435A633CE03B685B680C2B1CD87B684E
:100D0C001B68196B3B685A6813469B001344233BC2
:100D1C001F2202FA03F3DB4319403B6818683B6857
:100D2C005A6813469B001344233B00FA03F27B687A
:100D3C001B680A431A631BE07B681B68D96A3B6813
:100D4C005A6813469B001344413B1F2202FA03F3DB
:100D5C00DB4319403B6818683B685A6813469B0094
:100D6C001344413B00FA03F27B681B680A43DA62C6
:100D7C003B681B68092B1CD97B681B68D9683B68CE
:100D8C001A6813465B0013441E3B072202FA03F356
:100D9C00DB4319403B6898683B681A6813465B0054
:100DAC0013441E3B00FA03F27B681B680A43DA60AB
:100DBC0019E07B681B6819693B681A6813465B006D
:100DCC001344072202FA03F3DB4319403B6898688B
:100DDC003B681A6813465B00134400FA03F27B6805
:100DEC001B680A431A613B681B68102B03D03B68D5
:100DFC001B68112B32D17B681B681D4A934225D18D
:100E0C007B681B689B6803F40003002B26D17B686E
:100E1C001B689A687B681B6842F400029A603B6806
:100E2C001B68102B1AD1134B1B68134AA2FB03230C
:100E3C009A0C13469B0013445B00BB6002E0BB683A
:100E4C00013BBB60BB68002BF9D107E07B689B6A58
:100E5C0043F020027B689A620123FB737B680022BB
:100E6C0083F82420FB7B18461437BD4680BC7047A2
:100E7C00002401400000002083DE1B4380B584B0B9
:100E8C0000AF78600023FB600023BB607B681B68AD
:100E9C009B6803F00103012B39D07B681B689A68AF
:100EAC007B681B6842F001029A601B4B1B681B4A53
:100EBC00A2FB03239B0CBB6002E0BB68013BBB6045
:100ECC00BB68002BF9D1FFF7E3FCF86018E0FFF7E3
:100EDC00DFFC0246FB68D31A022B11D97B689B6A94
:100EEC0043F010027B689A627B68DB6A43F0010274
:100EFC007B68DA627B68002283F82420012307E0F8
:100F0C007B681B689B6803F00103012BDFD1002376
:100F1C0018461037BD4680BD0000002083DE1B4301
:100F2C0080B584B000AF78600023FB607B681B68E1
:100F3C009B6803F00103012B27D17B681B689A681F
:100F4C007B681B6822F001029A60FFF7A1FCF86035
:100F5C0014E0FFF79DFC0246FB68D31A022B0DD957
:100F6C007B689B6A43F010027B689A627B68DB6A41
:100F7C0043F001027B68DA62012307E07B681B689F
:100F8C009B6803F00103012BE3D0002318461037B4
:100F9C00BD4680BD80B584B000AF78607B685B6A6D
:100FAC00FB60FB689B6A03F05003002B27D1FB68A6
:100FBC009B6A43F40072FB689A62FB681B689B682F
:100FCC0003F46023B3F5602F15D1FB681B7B002B5A
:100FDC0011D1FB689B6A23F48072FB689A62FB68F0
:100FEC009B6A03F48053002B05D1FB689B6A43F08A
:100FFC000102FB689A62F868FFF72CFE04E0FB68BC
:10100C001B6A1B6B7868984700BF1037BD4680BDC4
:10101C0080B584B000AF78607B685B6AFB60F86871
:10102C00FFF721FE00BF1037BD4680BD80B584B0F0
:10103C0000AF78607B685B6AFB60FB689B6A43F07F
:10104C004002FB689A62FB68DB6A43F00402FB68AF
:10105C00DA62F868FFF710FE00BF1037BD4680BD9E
:10106C0080B485B000AF78607B6803F00703FB6049
:10107C000C4BDB68BB60BA684FF6FF031340BB60D8
:10108C00FB681A02BB68134343F0BF6343F400339D
:10109C00BB60044ABB68D36000BF1437BD4680BC3C
:1010AC00704700BF00ED00E080B400AF044BDB687C
:1010BC001B0A03F007031846BD4680BC704700BFEF
:1010CC0000ED00E080B483B000AF0346FB7197F9EC
:1010DC000730002B0BDBFB7903F01F02064997F955
:1010EC0007305B09012000FA02F241F8232000BF0F
:1010FC000C37BD4680BC704700E100E080B483B083
:10110C0000AF03463960FB7197F90730002B0ADBFF
:10111C003B68DAB20C4997F907301201D2B20B4492
:10112C0083F800230AE03B68DAB20849FB7903F044
:10113C000F03043B1201D2B20B441A7600BF0C37DA
:10114C00BD4680BC704700BF00E100E000ED00E050
:10115C0080B489B000AFF860B9607A60FB6803F0C6
:10116C000703FB61FB69C3F10703042B28BF0423AE
:10117C00BB61FB690433062B02D9FB69033B00E01E
:10118C0000237B614FF0FF32BB6902FA03F3DA43B1
:10119C00BB681A407B699A404FF0FF317B6901FABA
:1011AC0003F3D9437B680B40134318462437BD46E1
:1011BC0080BC704780B582B000AF78607B68013B23
:1011CC00B3F1807F01D301230FE00A4A7B68013B16
:1011DC0053600F214FF0FF30FFF790FF054B0022BB
:1011EC009A60044B07221A60002318460837BD4644
:1011FC0080BD00BF10E000E080B582B000AF786029
:10120C007868FFF72DFF00BF0837BD4680BD80B55D
:10121C0086B000AF0346B9607A60FB7300237B6134
:10122C00FFF742FF78617A68B9687869FFF790FF39
:10123C00024697F90F3011461846FFF75FFF00BFC3
:10124C001837BD4680BD80B582B000AF0346FB7138
:10125C0097F907301846FFF735FF00BF0837BD4632
:10126C0080BD80B582B000AF78607868FFF7A2FFD0
:10127C00034618460837BD4680BD000080B485B0D3
:10128C0000AF78600023FB607B68002B01D1012349
:10129C0043E07B681B681A46224B1344224AA2FB8C
:1012AC0003231B099A007B681A647B681F4ADA6364
:1012BC007B68022283F821207B681B681B68FB601B
:1012CC00FB6823F47F5323F03003FB607B685A6880
:1012DC007B689B681A437B68DB681A437B681B69D5
:1012EC001A437B685B691A437B689B691A437B686A
:1012FC00DB691343FA681343FB607B681B68FA686D
:10130C001A607B6800229A637B68012283F8212093
:10131C007B68002283F82020002318461437BD4632
:10132C0080BC7047F8FFFDBFCDCCCCCC0000024098
:10133C0080B586B000AFF860B9607A603B6000237E
:10134C00FB75FB6893F82030012B01D102234AE096
:10135C00FB68012283F82020FB6893F82130012BD5
:10136C003AD1FB68022283F82120FB6800229A63A1
:10137C00FB681B681A68FB681B6822F001021A6084
:10138C003B687A68B968F86800F038F9FB68DB6A82
:10139C00002B08D0FB681B681A68FB681B6842F0BE
:1013AC000E021A600FE0FB681B681A68FB681B686A
:1013BC0022F004021A60FB681B681A68FB681B6841
:1013CC0042F00A021A60FB681B681A68FB681B680B
:1013DC0042F001021A6005E0FB68002283F820202D
:1013EC000223FB75FB7D18461837BD4680BD0000F7
:1013FC0080B584B000AF78607B68DB6B1B68FB60EA
:10140C007B681B681B68BB607B681B6C04229A4062
:10141C00FB681340002B4FD0BB6803F00403002B78
:10142C004AD07B681B681B6803F02003002B07D194
:10143C007B681B681A687B681B6822F004021A60C0
:10144C007B681B68664A934229D07B681B68654A97
:10145C00934222D07B681B68634A93421AD07B6804
:10146C001B68624A934212D07B681B68604A9342A5
:10147C000AD07B681B685F4A934202D14FF4800309
:10148C000EE04FF080630BE04FF4802308E04FF444
:10149C00804305E04FF4806302E0402300E0042326
:1014AC00554A53607B68DB6A002B00F094807B68A4
:1014BC00DB6A786898478EE07B681B6C02229A4046
:1014CC00FB681340002B56D0BB6803F00203002BC3
:1014DC0051D07B681B681B6803F02003002B0BD1D9
:1014EC007B681B681A687B681B6822F00A021A600A
:1014FC007B68012283F821207B681B68384A934261
:10150C0029D07B681B68374A934222D07B681B68C2
:10151C00354A93421AD07B681B68344A934212D0E6
:10152C007B681B68324A93420AD07B681B68314A3D
:10153C00934202D14FF400130EE04FF000730BE016
:10154C004FF4003308E04FF4005305E04FF4007300
:10155C0002E0202300E00223274A53607B6800222C
:10156C0083F820207B689B6A002B34D07B689B6AB5
:10157C00786898472FE07B681B6C08229A40FB68C0
:10158C001340002B28D0BB6803F00803002B23D09A
:10159C007B681B681A687B681B6822F00E021A6055
:1015AC007B681A6C7B68DB6B012101FA02F25A60D2
:1015BC007B6801229A637B68012283F821207B6877
:1015CC00002283F820207B681B6B002B04D07B68E7
:1015DC001B6B7868984700BF00BF1037BD4680BDB5
:1015EC00080002401C00024030000240440002404F
:1015FC00580002406C0002400000024080B485B0EC
:10160C0000AFF860B9607A603B60FB681A6CFB68ED
:10161C00DB6B012101FA02F25A60FB681B683A6825
:10162C005A60FB685B68102B08D1FB681B687A68F2
:10163C009A60FB681B68BA68DA6007E0FB681B6895
:10164C00BA689A60FB681B687A68DA6000BF143766
:10165C00BD4680BC7047000080B48BB000AF786092
:10166C00396000237B6200233B6227E101227B6A05
:10167C0002FA03F3FB613B681B68FA691340BB6118
:10168C00BA69FB699A4240F016813B685B68122B81
:10169C0034D0122B0DD8022B2BD0022B04D8002BBC
:1016AC0031D0012B1CD048E0032B43D0112B1BD085
:1016BC0043E0894A934226D0874A934206D8874A08
:1016CC00934220D0864A93421DD036E0854A9342FD
:1016DC0019D0854A934216D0844A934213D02CE0F9
:1016EC003B68DB683B6228E03B68DB6804333B62A9
:1016FC0023E03B68DB6808333B621EE03B68DB6839
:10170C000C333B6219E03B689B68002B02D104232D
:10171C003B6212E03B689B68012B05D108233B62BE
:10172C007B68FA691A6108E008233B627B68FA69F6
:10173C005A6102E000233B6200BFBB69FF2B01D85A
:10174C007B6801E07B6804337B61BB69FF2B02D8AB
:10175C007B6A9B0002E07B6A083B9B003B617B69D8
:10176C001A680F213B6901FA03F3DB431A40396A0B
:10177C003B6901FA03F31A437B691A603B685B68A7
:10178C0003F08053002B00F09680594B9B69584A0C
:10179C0043F001039361564B9B6903F00103BB605B
:1017AC00BB68544A7B6A9B08023352F82330FB60B7
:1017BC007B6A03F003039B000F2202FA03F3DB4363
:1017CC00FA681340FB607B684B4A934213D07B68EA
:1017DC004A4A93420DD07B68494A934207D07B68B2
:1017EC00484A934201D1032306E0042304E0022378
:1017FC0002E0012300E000237A6A02F00302920067
:10180C009340FA681343FB603A497B6A9B080233A6
:10181C00FA6841F823203B685B6803F48033002BA3
:10182C0006D0394B1A683849BB6913430B6006E084
:10183C00354B1A68BB69DB43334913400B603B687B
:10184C005B6803F40033002B06D02F4B5A682E49EB
:10185C00BB6913434B6006E02B4B5A68BB69DB43F7
:10186C00294913404B603B685B6803F48013002BE1
:10187C0006D0254B9A682449BB6913438B6006E05C
:10188C00214B9A68BB69DB431F4913408B603B6853
:10189C005B6803F40013002B06D01B4BDA681A4963
:1018AC00BB691343CB6006E0174BDA68BB69DB43BB
:1018BC0015491340CB607B6A01337B623B681A6825
:1018CC007B6A22FA03F3002B7FF4D0AE00BF2C37D7
:1018DC00BD4680BC704700BF0000211000001110F5
:1018EC000000121000003110000032100000221015
:1018FC00001002400000014000080140000C0140B3
:10190C0000100140001401400004014080B483B079
:10191C0000AF78600B467B8013467B707B78002B86
:10192C0003D07A887B681A6103E07B881A047B6891
:10193C001A6100BF0C37BD4680BC704780B483B0C1
:10194C0000AF78600B467B807B68DA687B8813403D
:10195C00002B03D07A887B685A6102E07A887B6816
:10196C001A6100BF0C37BD4680BC704780B586B08D
:10197C0000AF78607B68002B01D101236CE27B689F
:10198C001B6803F00103002B00F08780924B5B680F
:10199C0003F00C03042B0CD08F4B5B6803F00C038F
:1019AC00082B12D18C4B5B6803F48033B3F5803F6A
:1019BC000BD1894B1B6803F40033002B6CD07B6874
:1019CC005B68002B68D1012346E27B685B68B3F54A
:1019DC00803F06D1804B1B687F4A43F480331360F1
:1019EC002EE07B685B68002B0CD17B4B1B687A4A22
:1019FC0023F480331360784B1B68774A23F48023DD
:101A0C0013601DE07B685B68B3F5A02F0CD1724BA3
:101A1C001B68714A43F4802313606F4B1B686E4A3A
:101A2C0043F4803313600BE06B4B1B686A4A23F45E
:101A3C0080331360684B1B68674A23F48023136060
:101A4C007B685B68002B13D0FEF722FF386108E03F
:101A5C00FEF71EFF02463B69D31A642B01D9032300
:101A6C00FAE15D4B1B6803F40033002BF0D014E05B
:101A7C00FEF70EFF386108E0FEF70AFF02463B69ED
:101A8C00D31A642B01D90323E6E1534B1B6803F4EF
:101A9C000033002BF0D100E000BF7B681B6803F023
:101AAC000203002B63D04C4B5B6803F00C03002B40
:101ABC000BD0494B5B6803F00C03082B1CD1464B35
:101ACC005B6803F48033002B16D1434B1B6803F087
:101ADC000203002B05D07B681B69012B01D001236D
:101AEC00BAE13D4B1B6823F0F8027B685B69DB00B5
:101AFC00394913430B603AE07B681B69002B20D0FB
:101B0C00364B01221A60FEF7C3FE386108E0FEF77F
:101B1C00BFFE02463B69D31A022B01D903239BE17A
:101B2C002D4B1B6803F00203002BF0D02A4B1B68D3
:101B3C0023F0F8027B685B69DB00274913430B60D9
:101B4C0015E0264B00221A60FEF7A2FE386108E071
:101B5C00FEF79EFE02463B69D31A022B01D90323E2
:101B6C007AE11D4B1B6803F00203002BF0D17B685C
:101B7C001B6803F00803002B3AD07B689B69002B91
:101B8C0019D0174B01221A60FEF782FE386108E06B
:101B9C00FEF77EFE02463B69D31A022B01D90323C2
:101BAC005AE10D4B5B6A03F00203002BF0D00120CD
:101BBC0000F0DAFA1CE00A4B00221A60FEF768FE0D
:101BCC0038610FE0FEF764FE02463B69D31A022B24
:101BDC0008D9032340E100BF00100240000042423C
:101BEC00800442429E4B5B6A03F00203002BE9D156
:101BFC007B681B6803F00403002B00F0A680002315
:101C0C00FB75974BDB6903F08053002B0DD1944B84
:101C1C00DB69934A43F08053D361914BDB6903F04A
:101C2C008053BB60BB680123FB758E4B1B6803F4B0
:101C3C008073002B18D18B4B1B688A4A43F480733A
:101C4C001360FEF725FE386108E0FEF721FE024620
:101C5C003B69D31A642B01D90323FDE0814B1B682C
:101C6C0003F48073002BF0D07B68DB68012B06D16A
:101C7C007B4B1B6A7A4A43F0010313622DE07B68AD
:101C8C00DB68002B0CD1764B1B6A754A23F00103E1
:101C9C001362734B1B6A724A23F0040313621CE039
:101CAC007B68DB68052B0CD16D4B1B6A6C4A43F0CF
:101CBC00040313626A4B1B6A694A43F00103136203
:101CCC000BE0674B1B6A664A23F001031362644BFB
:101CDC001B6A634A23F0040313627B68DB68002BE6
:101CEC0015D0FEF7D5FD38610AE0FEF7D1FD0246AE
:101CFC003B69D31A41F28832934201D90323ABE0FA
:101D0C00574B1B6A03F00203002BEED014E0FEF7D6
:101D1C00BFFD38610AE0FEF7BBFD02463B69D31AF2
:101D2C0041F28832934201D9032395E04C4B1B6A54
:101D3C0003F00203002BEED1FB7D012B05D1484BA8
:101D4C00DB69474A23F08053D3617B68DB69002B46
:101D5C0000F08180424B5B6803F00C03082B61D0D0
:101D6C007B68DB69022B46D13F4B00221A60FEF7E1
:101D7C008FFD386108E0FEF78BFD02463B69D31AF4
:101D8C00022B01D9032367E0354B1B6803F000736A
:101D9C00002BF0D17B681B6AB3F5803F08D1304B28
:101DAC005B6823F400327B689B682D4913434B60BE
:101DBC002B4B5B6823F474127B68196A7B685B6A33
:101DCC000B43274913434B60274B01221A60FEF744
:101DDC005FFD386108E0FEF75BFD02463B69D31AF4
:101DEC00022B01D9032337E01D4B1B6803F0007352
:101DFC00002BF0D02FE01C4B00221A60FEF748FDA0
:101E0C00386108E0FEF744FD02463B69D31A022B09
:101E1C0001D9032320E0124B1B6803F00073002B45
:101E2C00F0D118E07B68DB69012B01D1012313E0B1
:101E3C000B4B5B68FB60FB6803F480327B681B6AAE
:101E4C009A4206D1FB6803F470127B685B6A9A4273
:101E5C0001D0012300E0002318461837BD4680BD91
:101E6C0000100240007000406000424280B584B017
:101E7C0000AF786039607B68002B01D10123D0E082
:101E8C006A4B1B6803F007033A689A4210D9674BF8
:101E9C001B6823F0070265493B6813430B60634BD7
:101EAC001B6803F007033A689A4201D00123B8E09B
:101EBC007B681B6803F00203002B20D07B681B6837
:101ECC0003F00403002B05D0594B5B68584A43F4CC
:101EDC00E06353607B681B6803F00803002B05D09C
:101EEC00534B5B68524A43F460535360504B5B68EE
:101EFC0023F0F0027B689B684D4913434B607B6871
:101F0C001B6803F00103002B40D07B685B68012B3E
:101F1C0007D1474B1B6803F40033002B15D1012369
:101F2C007FE07B685B68022B07D1414B1B6803F099
:101F3C000073002B09D1012373E03D4B1B6803F0A8
:101F4C000203002B01D101236BE0394B5B6823F0BA
:101F5C0003027B685B68364913434B60FEF798FCC1
:101F6C00F8600AE0FEF794FC0246FB68D31A41F2D3
:101F7C008832934201D9032353E02D4B5B6803F065
:101F8C000C027B685B689B009A42EBD1274B1B6869
:101F9C0003F007033A689A4210D2244B1B6823F0D3
:101FAC00070222493B6813430B60204B1B6803F06C
:101FBC0007033A689A4201D0012332E07B681B6820
:101FCC0003F00403002B08D0194B5B6823F4E06288
:101FDC007B68DB68164913434B607B681B6803F016
:101FEC000803002B09D0124B5B6823F460527B680A
:101FFC001B69DB000E4913434B6000F021F80146CE
:10200C000B4B5B681B0903F00F030A4AD35C21FAE4
:10201C0003F3094A1360094B1B681846FEF7F6FBDD
:10202C00002318461037BD4680BD00BF002002407B
:10203C0000100240F42F00080000002004000020D3
:10204C0090B48AB000AF2A4B3C1D0FCB84E80F0034
:10205C00284B1B883B800023FB610023BB610023C2
:10206C007B6200237B6100233B62234B5B68FB613B
:10207C00FB6903F00C03042B02D0082B03D02DE0DA
:10208C001E4B3B622DE0FB699B0C03F00F0307F129
:10209C002802134413F8243C7B61FB6903F480335E
:1020AC00002B13D0144B5B685B0C03F0010307F19E
:1020BC002802134413F8283CBB617B690F4A02FBCE
:1020CC0003F2BB69B2FBF3F37B6204E07B690C4A5D
:1020DC0002FB03F37B627B6A3B6202E0074B3B62D1
:1020EC0000BF3B6A18462837BD4690BC704700BFFE
:1020FC00E02F0008F02F00080010024000127A00B8
:10210C0000093D0080B400AF024B1B681846BD4669
:10211C0080BC70470000002080B500AFFFF7F2FFD5
:10212C000146054B5B681B0A03F00703034AD35CAB
:10213C0021FA03F3184680BD001002400430000859
:10214C0080B500AFFFF7DEFF0146054B5B68DB0A8D
:10215C0003F00703034AD35C21FA03F3184680BD4E
:10216C00001002400430000880B485B000AF7860E5
:10217C000A4B1B680A4AA2FB03235B0A7A6802FB20
:10218C0003F3FB6000BFFB685A1EFA60002BF9D109
:10219C0000BF1437BD4680BC704700BF0000002054
:1021AC00D34D621080B586B000AF786000233B61E0
:1021BC000023FB607B681B6803F00103002B7DD0C0
:1021CC000023FB754F4BDB6903F08053002B0DD1C3
:1021DC004C4BDB694B4A43F08053D361494BDB6971
:1021EC0003F08053BB60BB680123FB75464B1B6837
:1021FC0003F48073002B18D1434B1B68424A43F401
:10220C0080731360FEF744FB386108E0FEF740FB77
:10221C0002463B69D31A642B01D903236DE03A4B78
:10222C001B6803F48073002BF0D0364B1B6A03F44D
:10223C004073FB60FB68002B2ED07B685B6803F45B
:10224C004073FA689A4227D02E4B1B6A23F44073D2
:10225C00FB602E4B01221A602C4B00221A60294A7B
:10226C00FB681362FB6803F00103002B14D0FEF72C
:10227C000FFB38610AE0FEF70BFB02463B69D31AF1
:10228C0041F28832934201D9032336E01D4B1B6A7D
:10229C0003F00203002BEED01A4B1B6A23F440729E
:1022AC007B685B68174913430B62FB7D012B05D1DF
:1022BC00144BDB69134A23F08053D3617B681B6892
:1022CC0003F00203002B08D00E4B5B6823F4404252
:1022DC007B689B680B4913434B607B681B6803F05E
:1022EC001003002B08D0074B5B6823F480027B683B
:1022FC00DB68044913434B60002318461837BD466E
:10230C0080BD00BF001002400070004040044242FB
:10231C0080B582B000AF78607B68002B01D10123BF
:10232C003FE07B6893F83930DBB2002B06D17B6839
:10233C00002283F838207868FEF74CF97B68242259
:10234C0083F839207B681B68DA687B681B6822F489
:10235C000052DA60786800F00BF97B681B681A6928
:10236C007B681B6822F490421A617B681B685A696F
:10237C007B681B6822F02A025A617B681B68DA684A
:10238C007B681B6842F40052DA607B680022DA63D7
:10239C007B68202283F839207B68202283F83A203E
:1023AC00002318460837BD4680BD80B588B002AF03
:1023BC00F860B9603B601346FB8000237B61FB68CF
:1023CC0093F83930DBB2202B40F08380BB68002BB4
:1023DC0002D0FB88002B01D101237BE0FB6893F832
:1023EC003830012B01D1022374E0FB68012283F801
:1023FC003820FB680022DA63FB68212283F839203D
:10240C00FEF746FA7861FB68FA889A84FB68FA88CA
:10241C00DA8442E0FB68DB8C9BB2013B9AB2FB682E
:10242C00DA84FB689B68B3F5805F22D13B6800932C
:10243C007B6900228021F86800F050F80346002BDD
:10244C0001D0032346E0BB683B613B691B881A46FD
:10245C00FB681B68C2F308025A60FB681B69002BFF
:10246C0003D1BB680233BB6017E0BB680133BB60B0
:10247C0013E03B6800937B6900228021F86800F030
:10248C002DF80346002B01D0032323E0BB685A1C14
:10249C00BA601A78FB681B685A60FB68DB8C9BB2CD
:1024AC00002BB7D13B6800937B6900224021F86870
:1024BC0000F014F80346002B01D003230AE0FB685C
:1024CC00202283F83920FB68002283F8382000236F
:1024DC0000E0022318461837BD4680BD80B584B095
:1024EC0000AFF860B9603B601346FB712CE0BB6930
:1024FC00B3F1FF3F28D0BB69002B07D0FEF7C8F91A
:10250C0002463B68D31ABA699A421DD2FB681B6813
:10251C00DA68FB681B6822F4D072DA60FB681B680F
:10252C005A69FB681B6822F001025A61FB68202281
:10253C0083F83920FB68202283F83A20FB680022BC
:10254C0083F8382003230FE0FB681B681A68BB680C
:10255C001340BA689A420CBF01230023DBB21A461F
:10256C00FB799A42C3D0002318461037BD4680BD74
:10257C0080B584B000AF78607B681B681B6923F45E
:10258C0040517B68DA687B681B680A431A617B6878
:10259C009A687B681B691A437B685B691343FB6011
:1025AC007B681B68DB6823F4B05323F00C037A6858
:1025BC001268F9680B43D3607B681B685B6923F472
:1025CC0040717B689A697B681B680A435A617B6817
:1025DC001B68524A93424ED1FFF7B2FDB860BA68FD
:1025EC0013469B0013449A001A447B685B689B005B
:1025FC00B2FBF3F34A4AA2FB03235B091901BA6845
:10260C0013469B0013449A001A447B685B689B003A
:10261C00B2FBF3F2424BA3FB02035B09642000FB09
:10262C0003F3D31A1B0132333D4AA2FB03235B098C
:10263C0003F0F0031944BA6813469B0013449A0044
:10264C001A447B685B689B00B2FBF3F2344BA3FB30
:10265C0002035B09642000FB03F3D31A1B01323322
:10266C002F4AA2FB03235B0903F00F027B681B6854
:10267C000A449A604DE0FFF74FFDB860BA68134604
:10268C009B0013449A001A447B685B689B00B2FB66
:10269C00F3F3234AA2FB03235B091901BA6813461F
:1026AC009B0013449A001A447B685B689B00B2FB46
:1026BC00F3F21B4BA3FB02035B09642000FB03F347
:1026CC00D31A1B013233164AA2FB03235B0903F016
:1026DC00F0031944BA6813469B0013449A001A4439
:1026EC007B685B689B00B2FBF3F20D4BA3FB020310
:1026FC005B09642000FB03F3D31A1B013233084A35
:10270C00A2FB03235B0903F00F027B681B680A44DE
:10271C009A6000BF1037BD4680BD00BF0038014035
:10272C001F85EB51014B1868704700BF0C0000204F
:10273C0070B500250C4E0D4CA41BA410A54209D15C
:10274C0000F034FC00250A4E0A4CA41BA410A54230
:10275C0005D170BD56F8253098470135EEE756F88F
:10276C00253098470135F2E7A0300008A03000086A
:10277C00A0300008A430000803460244934200D164
:10278C00704703F8011BF9E70EB46FF0004100B578
:10279C009CB01DAB02900690079104910848094922
:1027AC0053F8042B0591006802A9019300F066F818
:1027BC000022029B1A701CB05DF804EB03B070474A
:1027CC000C0000200802FFFF2DE9F0478E688246BE
:1027DC009E420C469046994637D88A8912F4906FDF
:1027EC0031D00223256809696F1A656905EB450527
:1027FC0095FBF3F509F101033B449D4238BF1D469F
:10280C00530530D5294600F037FB064650B90C234A
:10281C004FF0FF30CAF80030A38943F04003A38186
:10282C00BDE8F0873A46216900F0B6FAA38923F493
:10283C00906343F08003A38126613E4426604E469C
:10284C006561ED1BA5604E4500D94E4632464146AA
:10285C00206800F0ACFAA36800209B1BA3602368DF
:10286C001E442660DCE72A4600F060FB0646002882
:10287C00E2D12169504600F0B3FAC8E72DE9F04FD8
:10288C001D468B899DB01F0680460C4616460FD5FB
:10289C000B696BB9402100F0EFFA2060206128B978
:1028AC000C23C8F800304FF0FF30C8E040236361C0
:1028BC000023099320238DF8293030234FF0010B8E
:1028CC008DF82A30039537463D4615F8013B0BB180
:1028DC00252B3ED1B7EB060A0BD053463246214688
:1028EC004046FFF771FF013000F0A480099B534470
:1028FC0009933B78002B00F09D8000234FF0FF32B2
:10290C00CDE90523049307938DF853301A932F4682
:10291C00052217F8011B504800F030FA049BD0B97F
:10292C00D90644BF20228DF853201A0744BF2B220E
:10293C008DF853202A782A2A15D02F4600200A25F4
:10294C00079A394611F8013B303B092B4DD9B8B1E8
:10295C000FE02F46B8E7404A3D46801A0BFA00F0CC
:10296C0018430490D3E7039A111D12680391002AAF
:10297C0001DB079204E0524243F0020307920493F6
:10298C003B782E2B0CD17B782A2B33D1039B02372F
:10299C001A1D1B680392002BB8BF4FF0FF33059331
:1029AC002E4D03223978284600F0E8F938B140233F
:1029BC00401B03FA00F0049B01370343049339785E
:1029CC00062227487E1C8DF8281000F0D7F9002825
:1029DC0038D0244B13BB039B073323F00703083376
:1029EC000393099B4B4409936DE705FB02320120CD
:1029FC000F46A6E700230A251946013705933846EA
:102A0C0010F8012B303A092A03D9002BC8D00591B4
:102A1C00C6E705FB012101230746F0E703AB009352
:102A2C002246114B04A94046AFF30080B0F1FF3FA2
:102A3C008146D6D1A3895B063FF535AF09981DB009
:102A4C00BDE8F08F03AB00932246074B04A9404628
:102A5C0000F082F8EAE700BF0C30000812300008E2
:102A6C001630000800000000D52700082DE9F047BB
:102A7C0091461F468A680B6906469342B8BF1346B7
:102A8C00C9F8003091F843200C46DDF8208012B1D3
:102A9C000133C9F800302368990642BFD9F80030D9
:102AAC000233C9F80030256815F0060507D104F18A
:102ABC00190AE368D9F800209B1AAB4229DC94F878
:102ACC0043302268003318BF012392062ED404F140
:102ADC00430239463046C047013021D02368E568AF
:102AEC0003F00603042B18BF0025D9F800204FF083
:102AFC00000908BFAD1AA368226908BF25EAE5756D
:102B0C009342C4BF9B1AED181A344D451AD10020BC
:102B1C0008E00123524639463046C047013003D104
:102B2C004FF0FF30BDE8F0870135C2E73020E118E7
:102B3C0081F843005A1C94F845102244023382F861
:102B4C004310C4E70123224639463046C0470130C2
:102B5C00E6D009F10109D8E72DE9F04301F1430C66
:102B6C000C46097E85B06E291746064698460C9A87
:102B7C0000F0B38022D8632936D00AD8002900F09F
:102B8C00B980582900F0838004F1420584F8421082
:102B9C0032E0642901D06929F6D120681368050652
:102BAC0003F104012AD51B681160002B03DA2D22D6
:102BBC005B4284F843206F480A2239E0732900F005
:102BCC009D8008D86F2920D07029DDD1236843F06F
:102BDC002003236003E0752917D07829D4D17823FA
:102BEC00654884F8453055E0136804F14205191D19
:102BFC001B68116084F8423001238CE01B6810F0D4
:102C0C00400F116018BF1BB2CFE713682568181D61
:102C1C001060280601D51B6802E06806FBD51B88EE
:102C2C006F2914BF0A2208225248002184F843104D
:102C3C006568002DA560C0F29580216821F0040123
:102C4C002160002B3DD1002D40F08E806546082A76
:102C5C000BD12368DB0708D5236962689A42DEBF73
:102C6C00302305F8013C05F1FF35ACEB050323617E
:102C7C00CDF800803B4603AA21463046FFF7F6FE0E
:102C8C0001304DD14FF0FF3005B0BDE8F08339482D
:102C9C0084F84510136821681D1D1B6815600A0611
:102CAC000BD5CA0744BF41F0200121601BB9226833
:102CBC0022F0200222601022B7E74D0648BF9BB2DB
:102CCC00EFE76546B3FBF2F102FB1133C35C05F889
:102CDC00013D0B460029F5D1B9E713682568181D8D
:102CEC006169106028061B6801D5196002E06A064C
:102CFC00FBD51980002365462361B9E71368191DBC
:102D0C0011601D6862680021284600F037F808B190
:102D1C00401B606063682361002384F84330A7E79D
:102D2C0023692A4639463046C0470130AAD0236869
:102D3C009B0713D4E068039B9842B8BF1846A3E7DF
:102D4C0001234A4639463046C04701309AD00135F6
:102D5C00E368039A9B1AAB42F2DCEBE7002504F123
:102D6C001909F5E7002BACD1037804F1420584F87E
:102D7C0042306CE71D3000082E30000810B5C9B287
:102D8C0002449042034601D1002303E01C78013039
:102D9C008C42F6D1184610BD10B5431E0A44914220
:102DAC0000D110BD11F8014B03F8014FF7E7884231
:102DBC0010B501EB020307D8421E99420AD011F854
:102DCC00014B02F8014FF8E78342F5D98118D21A6A
:102DDC00D34200D110BD13F8014D01F8014DF7E7B6
:102DEC0038B50546002943D051F8043C0C1F002B84
:102DFC00B8BFE41800F0D0F81E4A1368104633B977
:102E0C00636014602846BDE8384000F0C6B8A342A1
:102E1C000BD921686218934201BF1A685B6852187B
:102E2C00226063600460EDE713465A680AB1A2425F
:102E3C00FAD919685818A0420BD1206801445818C7
:102E4C0082421960DED110685268014419605A60E0
:102E5C00D8E702D90C232B60D4E7206821188A42CA
:102E6C0001BF116852680918216062605C60C9E793
:102E7C0038BD00BF9000002070B5CD1C25F00305B7
:102E8C0008350C2D38BF0C25002D064601DBA94258
:102E9C0003D90C233360002070BD00F07DF8214A6B
:102EAC001468214691B9204C23681BB9304600F0B8
:102EBC0063F820602946304600F05EF8431C24D1AC
:102ECC000C233046336000F068F8E4E70B685B1BBA
:102EDC0018D40B2B0FD90B60CC18CD50304600F00A
:102EEC005CF804F10B00231D20F00700C31AD3D0AB
:102EFC005A42E250D0E74B688C4216BF63601360B5
:102F0C000C46EBE70C464968CCE7C41C24F00304E0
:102F1C00A04205D0211A304600F02EF80130CFD057
:102F2C002560DBE79000002094000020F8B50746F0
:102F3C0014460E4621B9BDE8F8401146FFF79CBF78
:102F4C0022B9FFF74DFF25462846F8BD00F026F8BC
:102F5C00A0420FD221463846FFF78EFF05460028C7
:102F6C00F2D031462246FFF717FF31463846FFF7BD
:102F7C0037FFE9E73546E7E738B50023054C05464A
:102F8C0008462360FDF7A6FB431C02D1236803B15E
:102F9C002B6038BD6C0100207047704751F8043C21
:102FAC00181F002BBCBF0B58C0187047F8B500BFDA
:102FBC00F8BC08BC9E467047F8B500BFF8BC08BC0E
:042FCC009E46704766
:102FD000256C642000000000256C64200A000000BD
:102FE00002030405060708090A0B0C0D0E0F10104A
:102FF00001020000000000000000000001020304C4
:10300000060708090000000001020304232D302BED
:103010002000686C4C0065666745464700303132D9
:103020003334353637383941424344454600303130
:10303000323334353637383961626364656600008F
:103040000000000000000000000000000000000080
:103050000000000000000000000000000000000070
:103060000000000000000000000000000000000060
:103070000000000000000000000000000000000050
:103080000000000000000000000000000000000040
:103090000000000000000000000000000000000030
:0430A00031010008F2
:0430A4000D01000812
:1030A8000024F400100000000100000010000020BF
:1030B8000000000060300008803000084030000840
:1030C80000000000000000000000000000000000F8
:1030D80000000000000000000000000000000000E8
:1030E80000000000000000000000000000000000D8
:1030F80000000000000000000000000000000000C8
:1031080000000000000000000000000000000000B7
:04000005080007A147
:00000001FF
